{
  "contractName": "SmartTestament",
  "abi": [
    {
      "inputs": [
        {
          "internalType": "address",
          "name": "_link",
          "type": "address"
        }
      ],
      "stateMutability": "nonpayable",
      "type": "constructor"
    },
    {
      "anonymous": false,
      "inputs": [
        {
          "indexed": true,
          "internalType": "bytes32",
          "name": "id",
          "type": "bytes32"
        }
      ],
      "name": "ChainlinkCancelled",
      "type": "event"
    },
    {
      "anonymous": false,
      "inputs": [
        {
          "indexed": true,
          "internalType": "bytes32",
          "name": "id",
          "type": "bytes32"
        }
      ],
      "name": "ChainlinkFulfilled",
      "type": "event"
    },
    {
      "anonymous": false,
      "inputs": [
        {
          "indexed": true,
          "internalType": "bytes32",
          "name": "id",
          "type": "bytes32"
        }
      ],
      "name": "ChainlinkRequested",
      "type": "event"
    },
    {
      "anonymous": false,
      "inputs": [
        {
          "indexed": true,
          "internalType": "address",
          "name": "previousOwner",
          "type": "address"
        },
        {
          "indexed": true,
          "internalType": "address",
          "name": "newOwner",
          "type": "address"
        }
      ],
      "name": "OwnershipTransferred",
      "type": "event"
    },
    {
      "inputs": [],
      "name": "owner",
      "outputs": [
        {
          "internalType": "address",
          "name": "",
          "type": "address"
        }
      ],
      "stateMutability": "view",
      "type": "function",
      "constant": true
    },
    {
      "inputs": [],
      "name": "renounceOwnership",
      "outputs": [],
      "stateMutability": "nonpayable",
      "type": "function"
    },
    {
      "inputs": [
        {
          "internalType": "address",
          "name": "newOwner",
          "type": "address"
        }
      ],
      "name": "transferOwnership",
      "outputs": [],
      "stateMutability": "nonpayable",
      "type": "function"
    },
    {
      "inputs": [
        {
          "internalType": "address",
          "name": "_oracle",
          "type": "address"
        },
        {
          "internalType": "bytes32",
          "name": "_jobId",
          "type": "bytes32"
        }
      ],
      "name": "setOracleParams",
      "outputs": [],
      "stateMutability": "nonpayable",
      "type": "function"
    },
    {
      "inputs": [
        {
          "internalType": "uint256",
          "name": "_days",
          "type": "uint256"
        }
      ],
      "name": "setGracePeriod",
      "outputs": [],
      "stateMutability": "nonpayable",
      "type": "function"
    },
    {
      "inputs": [],
      "name": "requestDaysSinceLastTweet",
      "outputs": [],
      "stateMutability": "nonpayable",
      "type": "function"
    },
    {
      "inputs": [
        {
          "internalType": "string",
          "name": "_username",
          "type": "string"
        }
      ],
      "name": "requestDaysSinceLastTweetForUsername",
      "outputs": [
        {
          "internalType": "bytes32",
          "name": "requestId",
          "type": "bytes32"
        }
      ],
      "stateMutability": "nonpayable",
      "type": "function"
    },
    {
      "inputs": [
        {
          "internalType": "string",
          "name": "_username",
          "type": "string"
        }
      ],
      "name": "getDaysSinceLastTweet",
      "outputs": [
        {
          "internalType": "uint256",
          "name": "daysSinceLastSeenAlive",
          "type": "uint256"
        }
      ],
      "stateMutability": "view",
      "type": "function",
      "constant": true
    },
    {
      "inputs": [],
      "name": "withdrawLink",
      "outputs": [],
      "stateMutability": "nonpayable",
      "type": "function"
    },
    {
      "inputs": [
        {
          "internalType": "bytes32",
          "name": "_requestId",
          "type": "bytes32"
        },
        {
          "internalType": "uint256",
          "name": "_payment",
          "type": "uint256"
        },
        {
          "internalType": "bytes4",
          "name": "_callbackFunctionId",
          "type": "bytes4"
        },
        {
          "internalType": "uint256",
          "name": "_expiration",
          "type": "uint256"
        }
      ],
      "name": "cancelRequest",
      "outputs": [],
      "stateMutability": "nonpayable",
      "type": "function"
    },
    {
      "inputs": [
        {
          "internalType": "bytes32",
          "name": "_requestId",
          "type": "bytes32"
        },
        {
          "internalType": "uint256",
          "name": "_data",
          "type": "uint256"
        }
      ],
      "name": "fulfill",
      "outputs": [],
      "stateMutability": "nonpayable",
      "type": "function"
    },
    {
      "inputs": [
        {
          "internalType": "uint256",
          "name": "_amount",
          "type": "uint256"
        },
        {
          "internalType": "string",
          "name": "_username",
          "type": "string"
        },
        {
          "internalType": "address",
          "name": "_beneficiary",
          "type": "address"
        }
      ],
      "name": "deposit",
      "outputs": [],
      "stateMutability": "nonpayable",
      "type": "function"
    },
    {
      "inputs": [],
      "name": "withdraw",
      "outputs": [],
      "stateMutability": "nonpayable",
      "type": "function"
    }
  ],
  "bytecode": "0x608060405260016004553480156200001657600080fd5b5060405162002f8538038062002f85833981810160405260208110156200003c57600080fd5b810190808051906020019092919050505060006200005f6200017a60201b60201c565b905080600660006101000a81548173ffffffffffffffffffffffffffffffffffffffff021916908373ffffffffffffffffffffffffffffffffffffffff1602179055508073ffffffffffffffffffffffffffffffffffffffff16600073ffffffffffffffffffffffffffffffffffffffff167f8be0079c531659141344cd1fd0a4f28419497f9722a3daafe3b4186f6b6457e060405160405180910390a350600073ffffffffffffffffffffffffffffffffffffffff168173ffffffffffffffffffffffffffffffffffffffff1614156200014a57620001446200018260201b60201c565b6200015c565b6200015b816200022c60201b60201c565b5b67016345785d8a000060098190555060b4600a819055505062000270565b600033905090565b6200022a73c89bd4e1632d3a43cb03aaad5262cbe4038bc57173ffffffffffffffffffffffffffffffffffffffff166338cc48316040518163ffffffff1660e01b815260040160206040518083038186803b158015620001e157600080fd5b505afa158015620001f6573d6000803e3d6000fd5b505050506040513d60208110156200020d57600080fd5b81019080805190602001909291905050506200022c60201b60201c565b565b80600260006101000a81548173ffffffffffffffffffffffffffffffffffffffff021916908373ffffffffffffffffffffffffffffffffffffffff16021790555050565b612d0580620002806000396000f3fe608060405234801561001057600080fd5b50600436106100ce5760003560e01c8063715018a61161008c5780638dc654a2116100665780638dc654a214610444578063ec65d0f81461044e578063f2f65960146104b9578063f2fde38b146104e7576100ce565b8063715018a6146103a257806382a844c2146103ac5780638da5cb5b146103fa576100ce565b8062393f2b146100d35780630c831202146101b85780633ccfd60b146102875780634357855e14610291578063553bd4ca146102c95780636e42851f146102d3575b600080fd5b6101b6600480360360608110156100e957600080fd5b81019080803590602001909291908035906020019064010000000081111561011057600080fd5b82018360208201111561012257600080fd5b8035906020019184600183028401116401000000008311171561014457600080fd5b91908080601f016020809104026020016040519081016040528093929190818152602001838380828437600081840152601f19601f820116905080830192505050505050509192919290803573ffffffffffffffffffffffffffffffffffffffff16906020019092919050505061052b565b005b610271600480360360208110156101ce57600080fd5b81019080803590602001906401000000008111156101eb57600080fd5b8201836020820111156101fd57600080fd5b8035906020019184600183028401116401000000008311171561021f57600080fd5b91908080601f016020809104026020016040519081016040528093929190818152602001838380828437600081840152601f19601f8201169050808301925050505050505091929192905050506109f8565b6040518082815260200191505060405180910390f35b61028f610b1a565b005b6102c7600480360360408110156102a757600080fd5b810190808035906020019092919080359060200190929190505050610ca1565b005b6102d1611051565b005b61038c600480360360208110156102e957600080fd5b810190808035906020019064010000000081111561030657600080fd5b82018360208201111561031857600080fd5b8035906020019184600183028401116401000000008311171561033a57600080fd5b91908080601f016020809104026020016040519081016040528093929190818152602001838380828437600081840152601f19601f8201169050808301925050505050505091929192905050506111dc565b6040518082815260200191505060405180910390f35b6103aa611357565b005b6103f8600480360360408110156103c257600080fd5b81019080803573ffffffffffffffffffffffffffffffffffffffff169060200190929190803590602001909291905050506114c7565b005b6104026116f4565b604051808273ffffffffffffffffffffffffffffffffffffffff1673ffffffffffffffffffffffffffffffffffffffff16815260200191505060405180910390f35b61044c61171e565b005b6104b76004803603608081101561046457600080fd5b81019080803590602001909291908035906020019092919080357bffffffffffffffffffffffffffffffffffffffffffffffffffffffff19169060200190929190803590602001909291905050506119c7565b005b6104e5600480360360208110156104cf57600080fd5b8101908080359060200190929190505050611a88565b005b610529600480360360208110156104fd57600080fd5b81019080803573ffffffffffffffffffffffffffffffffffffffff169060200190929190505050611bb7565b005b600083116105a1576040517f08c379a00000000000000000000000000000000000000000000000000000000081526004018080602001828103825260128152602001807f416d6f756e742063616e6e6f742062652030000000000000000000000000000081525060200191505060405180910390fd5b60608290506002815111610600576040517f08c379a0000000000000000000000000000000000000000000000000000000008152600401808060200182810382526026815260200180612c606026913960400191505060405180910390fd5b600073ffffffffffffffffffffffffffffffffffffffff168273ffffffffffffffffffffffffffffffffffffffff1614156106a3576040517f08c379a000000000000000000000000000000000000000000000000000000000815260040180806020018281038252601e8152602001807f596f75206d7573742070726f7669646520612062656e6566696369617279000081525060200191505060405180910390fd5b6000600d60003373ffffffffffffffffffffffffffffffffffffffff1673ffffffffffffffffffffffffffffffffffffffff168152602001908152602001600020541161086f57600e836040518082805190602001908083835b6020831061072057805182526020820191506020810190506020830392506106fd565b6001836020036101000a0380198251168184511680821785525050505050509050019150509081526020016040518091039020339080600181540180825580915050600190039060005260206000200160009091909190916101000a81548173ffffffffffffffffffffffffffffffffffffffff021916908373ffffffffffffffffffffffffffffffffffffffff1602179055506010839080600181540180825580915050600190039060005260206000200160009091909190915090805190602001906107ef929190612aa2565b5081600f60003373ffffffffffffffffffffffffffffffffffffffff1673ffffffffffffffffffffffffffffffffffffffff16815260200190815260200160002060006101000a81548173ffffffffffffffffffffffffffffffffffffffff021916908373ffffffffffffffffffffffffffffffffffffffff1602179055505b83600d60003373ffffffffffffffffffffffffffffffffffffffff1673ffffffffffffffffffffffffffffffffffffffff1681526020019081526020016000205401600d60003373ffffffffffffffffffffffffffffffffffffffff1673ffffffffffffffffffffffffffffffffffffffff168152602001908152602001600020819055506108fc611dac565b73ffffffffffffffffffffffffffffffffffffffff166323b872dd3330876040518463ffffffff1660e01b8152600401808473ffffffffffffffffffffffffffffffffffffffff1673ffffffffffffffffffffffffffffffffffffffff1681526020018373ffffffffffffffffffffffffffffffffffffffff1673ffffffffffffffffffffffffffffffffffffffff1681526020018281526020019350505050602060405180830381600087803b1580156109b657600080fd5b505af11580156109ca573d6000803e3d6000fd5b505050506040513d60208110156109e057600080fd5b81019080805190602001909291905050505050505050565b6000610a02611dd6565b73ffffffffffffffffffffffffffffffffffffffff16610a206116f4565b73ffffffffffffffffffffffffffffffffffffffff1614610aa9576040517f08c379a00000000000000000000000000000000000000000000000000000000081526004018080602001828103825260208152602001807f4f776e61626c653a2063616c6c6572206973206e6f7420746865206f776e657281525060200191505060405180910390fd5b600b826040518082805190602001908083835b60208310610adf5780518252602082019150602081019050602083039250610abc565b6001836020036101000a0380198251168184511680821785525050505050509050019150509081526020016040518091039020549050919050565b6000600d60003373ffffffffffffffffffffffffffffffffffffffff1673ffffffffffffffffffffffffffffffffffffffff16815260200190815260200160002054905060008111610bd4576040517f08c379a000000000000000000000000000000000000000000000000000000000815260040180806020018281038252601d8152602001807f4465706f73697465642062616c616e63652063616e6e6f74206265203000000081525060200191505060405180910390fd5b610bdc611dac565b73ffffffffffffffffffffffffffffffffffffffff1663a9059cbb33836040518363ffffffff1660e01b8152600401808373ffffffffffffffffffffffffffffffffffffffff1673ffffffffffffffffffffffffffffffffffffffff16815260200182815260200192505050602060405180830381600087803b158015610c6257600080fd5b505af1158015610c76573d6000803e3d6000fd5b505050506040513d6020811015610c8c57600080fd5b81019080805190602001909291905050505050565b816005600082815260200190815260200160002060009054906101000a900473ffffffffffffffffffffffffffffffffffffffff1673ffffffffffffffffffffffffffffffffffffffff163373ffffffffffffffffffffffffffffffffffffffff1614610d59576040517f08c379a0000000000000000000000000000000000000000000000000000000008152600401808060200182810382526028815260200180612ca86028913960400191505060405180910390fd5b6005600082815260200190815260200160002060006101000a81549073ffffffffffffffffffffffffffffffffffffffff0219169055807f7cc135e0cebb02c3480ae5d74d377283180a2601f8f644edf7987b009316c63a60405160405180910390a26060600c60008581526020019081526020016000208054600181600116156101000203166002900480601f016020809104026020016040519081016040528092919081815260200182805460018160011615610100020316600290048015610e655780601f10610e3a57610100808354040283529160200191610e65565b820191906000526020600020905b815481529060010190602001808311610e4857829003601f168201915b505050505090506060819050600081511415610e8257505061104c565b83600b836040518082805190602001908083835b60208310610eb95780518252602082019150602081019050602083039250610e96565b6001836020036101000a038019825116818451168082178552505050505050905001915050908152602001604051809103902081905550600c60008681526020019081526020016000206000610f0f9190612b22565b600a548411156110495760008090505b600e836040518082805190602001908083835b60208310610f555780518252602082019150602081019050602083039250610f32565b6001836020036101000a0380198251168184511680821785525050505050509050019150509081526020016040518091039020805490508110156110475761103a600e846040518082805190602001908083835b60208310610fcc5780518252602082019150602081019050602083039250610fa9565b6001836020036101000a0380198251168184511680821785525050505050509050019150509081526020016040518091039020828154811061100a57fe5b9060005260206000200160009054906101000a900473ffffffffffffffffffffffffffffffffffffffff16611dde565b8080600101915050610f1f565b505b50505b505050565b611059611dd6565b73ffffffffffffffffffffffffffffffffffffffff166110776116f4565b73ffffffffffffffffffffffffffffffffffffffff1614611100576040517f08c379a00000000000000000000000000000000000000000000000000000000081526004018080602001828103825260208152602001807f4f776e61626c653a2063616c6c6572206973206e6f7420746865206f776e657281525060200191505060405180910390fd5b60008090505b6010805490508110156111d9576111cb6010828154811061112357fe5b906000526020600020018054600181600116156101000203166002900480601f0160208091040260200160405190810160405280929190818152602001828054600181600116156101000203166002900480156111c15780601f10611196576101008083540402835291602001916111c1565b820191906000526020600020905b8154815290600101906020018083116111a457829003601f168201915b50505050506111dc565b508080600101915050611106565b50565b60006111e6611dd6565b73ffffffffffffffffffffffffffffffffffffffff166112046116f4565b73ffffffffffffffffffffffffffffffffffffffff161461128d576040517f08c379a00000000000000000000000000000000000000000000000000000000081526004018080602001828103825260208152602001807f4f776e61626c653a2063616c6c6572206973206e6f7420746865206f776e657281525060200191505060405180910390fd5b611295612b6a565b6112a960085430634357855e60e01b611fdd565b90506112f56040518060400160405280600881526020017f757365726e616d65000000000000000000000000000000000000000000000000815250848361200e9092919063ffffffff16565b611324600760009054906101000a900473ffffffffffffffffffffffffffffffffffffffff1682600954612041565b915082600c6000848152602001908152602001600020908051906020019061134d929190612aa2565b5081915050919050565b61135f611dd6565b73ffffffffffffffffffffffffffffffffffffffff1661137d6116f4565b73ffffffffffffffffffffffffffffffffffffffff1614611406576040517f08c379a00000000000000000000000000000000000000000000000000000000081526004018080602001828103825260208152602001807f4f776e61626c653a2063616c6c6572206973206e6f7420746865206f776e657281525060200191505060405180910390fd5b600073ffffffffffffffffffffffffffffffffffffffff16600660009054906101000a900473ffffffffffffffffffffffffffffffffffffffff1673ffffffffffffffffffffffffffffffffffffffff167f8be0079c531659141344cd1fd0a4f28419497f9722a3daafe3b4186f6b6457e060405160405180910390a36000600660006101000a81548173ffffffffffffffffffffffffffffffffffffffff021916908373ffffffffffffffffffffffffffffffffffffffff160217905550565b6114cf611dd6565b73ffffffffffffffffffffffffffffffffffffffff166114ed6116f4565b73ffffffffffffffffffffffffffffffffffffffff1614611576576040517f08c379a00000000000000000000000000000000000000000000000000000000081526004018080602001828103825260208152602001807f4f776e61626c653a2063616c6c6572206973206e6f7420746865206f776e657281525060200191505060405180910390fd5b600073ffffffffffffffffffffffffffffffffffffffff168273ffffffffffffffffffffffffffffffffffffffff1614156115fc576040517f08c379a0000000000000000000000000000000000000000000000000000000008152600401808060200182810382526022815260200180612c866022913960400191505060405180910390fd5b81600760006101000a81548173ffffffffffffffffffffffffffffffffffffffff021916908373ffffffffffffffffffffffffffffffffffffffff160217905550600060f81b8160006020811061164f57fe5b1a60f81b7effffffffffffffffffffffffffffffffffffffffffffffffffffffffffffff191614156116e9576040517f08c379a00000000000000000000000000000000000000000000000000000000081526004018080602001828103825260188152602001807f41206a6f624964206d7573742062652070726f7669646564000000000000000081525060200191505060405180910390fd5b806008819055505050565b6000600660009054906101000a900473ffffffffffffffffffffffffffffffffffffffff16905090565b611726611dd6565b73ffffffffffffffffffffffffffffffffffffffff166117446116f4565b73ffffffffffffffffffffffffffffffffffffffff16146117cd576040517f08c379a00000000000000000000000000000000000000000000000000000000081526004018080602001828103825260208152602001807f4f776e61626c653a2063616c6c6572206973206e6f7420746865206f776e657281525060200191505060405180910390fd5b60006117d7611dac565b90508073ffffffffffffffffffffffffffffffffffffffff1663a9059cbb338373ffffffffffffffffffffffffffffffffffffffff166370a08231306040518263ffffffff1660e01b8152600401808273ffffffffffffffffffffffffffffffffffffffff1673ffffffffffffffffffffffffffffffffffffffff16815260200191505060206040518083038186803b15801561187357600080fd5b505afa158015611887573d6000803e3d6000fd5b505050506040513d602081101561189d57600080fd5b81019080805190602001909291905050506040518363ffffffff1660e01b8152600401808373ffffffffffffffffffffffffffffffffffffffff1673ffffffffffffffffffffffffffffffffffffffff16815260200182815260200192505050602060405180830381600087803b15801561191757600080fd5b505af115801561192b573d6000803e3d6000fd5b505050506040513d602081101561194157600080fd5b81019080805190602001909291905050506119c4576040517f08c379a00000000000000000000000000000000000000000000000000000000081526004018080602001828103825260128152602001807f556e61626c6520746f207472616e73666572000000000000000000000000000081525060200191505060405180910390fd5b50565b6119cf611dd6565b73ffffffffffffffffffffffffffffffffffffffff166119ed6116f4565b73ffffffffffffffffffffffffffffffffffffffff1614611a76576040517f08c379a00000000000000000000000000000000000000000000000000000000081526004018080602001828103825260208152602001807f4f776e61626c653a2063616c6c6572206973206e6f7420746865206f776e657281525060200191505060405180910390fd5b611a82848484846122f9565b50505050565b611a90611dd6565b73ffffffffffffffffffffffffffffffffffffffff16611aae6116f4565b73ffffffffffffffffffffffffffffffffffffffff1614611b37576040517f08c379a00000000000000000000000000000000000000000000000000000000081526004018080602001828103825260208152602001807f4f776e61626c653a2063616c6c6572206973206e6f7420746865206f776e657281525060200191505060405180910390fd5b60008111611bad576040517f08c379a00000000000000000000000000000000000000000000000000000000081526004018080602001828103825260188152602001807f4d757374206265206d6f7265207468616e20302064617973000000000000000081525060200191505060405180910390fd5b80600a8190555050565b611bbf611dd6565b73ffffffffffffffffffffffffffffffffffffffff16611bdd6116f4565b73ffffffffffffffffffffffffffffffffffffffff1614611c66576040517f08c379a00000000000000000000000000000000000000000000000000000000081526004018080602001828103825260208152602001807f4f776e61626c653a2063616c6c6572206973206e6f7420746865206f776e657281525060200191505060405180910390fd5b600073ffffffffffffffffffffffffffffffffffffffff168173ffffffffffffffffffffffffffffffffffffffff161415611cec576040517f08c379a0000000000000000000000000000000000000000000000000000000008152600401808060200182810382526026815260200180612c176026913960400191505060405180910390fd5b8073ffffffffffffffffffffffffffffffffffffffff16600660009054906101000a900473ffffffffffffffffffffffffffffffffffffffff1673ffffffffffffffffffffffffffffffffffffffff167f8be0079c531659141344cd1fd0a4f28419497f9722a3daafe3b4186f6b6457e060405160405180910390a380600660006101000a81548173ffffffffffffffffffffffffffffffffffffffff021916908373ffffffffffffffffffffffffffffffffffffffff16021790555050565b6000600260009054906101000a900473ffffffffffffffffffffffffffffffffffffffff16905090565b600033905090565b6000600d60008373ffffffffffffffffffffffffffffffffffffffff1673ffffffffffffffffffffffffffffffffffffffff1681526020019081526020016000205490506000600f60008473ffffffffffffffffffffffffffffffffffffffff1673ffffffffffffffffffffffffffffffffffffffff16815260200190815260200160002060009054906101000a900473ffffffffffffffffffffffffffffffffffffffff169050600073ffffffffffffffffffffffffffffffffffffffff168173ffffffffffffffffffffffffffffffffffffffff1614158015611ec35750600082115b15611fd857611ed0611dac565b73ffffffffffffffffffffffffffffffffffffffff1663a9059cbb82846040518363ffffffff1660e01b8152600401808373ffffffffffffffffffffffffffffffffffffffff1673ffffffffffffffffffffffffffffffffffffffff16815260200182815260200192505050602060405180830381600087803b158015611f5657600080fd5b505af1158015611f6a573d6000803e3d6000fd5b505050506040513d6020811015611f8057600080fd5b8101908080519060200190929190505050506000600d60008573ffffffffffffffffffffffffffffffffffffffff1673ffffffffffffffffffffffffffffffffffffffff168152602001908152602001600020819055505b505050565b611fe5612b6a565b611fed612b6a565b6120048585858461245c909392919063ffffffff16565b9150509392505050565b61202582846080015161250c90919063ffffffff16565b61203c81846080015161250c90919063ffffffff16565b505050565b600030600454604051602001808373ffffffffffffffffffffffffffffffffffffffff1673ffffffffffffffffffffffffffffffffffffffff1660601b815260140182815260200192505050604051602081830303815290604052805190602001209050600454836060018181525050836005600083815260200190815260200160002060006101000a81548173ffffffffffffffffffffffffffffffffffffffff021916908373ffffffffffffffffffffffffffffffffffffffff160217905550807fb5e6e01e79f91267dc17b4e6314d5d4d03593d2ceee0fbb452b750bd70ea5af960405160405180910390a2600260009054906101000a900473ffffffffffffffffffffffffffffffffffffffff1673ffffffffffffffffffffffffffffffffffffffff16634000aea0858461217987612531565b6040518463ffffffff1660e01b8152600401808473ffffffffffffffffffffffffffffffffffffffff1673ffffffffffffffffffffffffffffffffffffffff16815260200183815260200180602001828103825283818151815260200191508051906020019080838360005b838110156122005780820151818401526020810190506121e5565b50505050905090810190601f16801561222d5780820380516001836020036101000a031916815260200191505b50945050505050602060405180830381600087803b15801561224e57600080fd5b505af1158015612262573d6000803e3d6000fd5b505050506040513d602081101561227857600080fd5b81019080805190602001909291905050506122de576040517f08c379a0000000000000000000000000000000000000000000000000000000008152600401808060200182810382526023815260200180612c3d6023913960400191505060405180910390fd5b60016004600082825401925050819055508090509392505050565b60006005600086815260200190815260200160002060009054906101000a900473ffffffffffffffffffffffffffffffffffffffff1690506005600086815260200190815260200160002060006101000a81549073ffffffffffffffffffffffffffffffffffffffff0219169055847fe1fe3afa0f7f761ff0a8b89086790efd5140d2907ebd5b7ff6bfcb5e075fd4c560405160405180910390a28073ffffffffffffffffffffffffffffffffffffffff16636ee4d553868686866040518563ffffffff1660e01b815260040180858152602001848152602001837bffffffffffffffffffffffffffffffffffffffffffffffffffffffff19167bffffffffffffffffffffffffffffffffffffffffffffffffffffffff19168152602001828152602001945050505050600060405180830381600087803b15801561243d57600080fd5b505af1158015612451573d6000803e3d6000fd5b505050505050505050565b612464612b6a565b61247485608001516101006126fd565b508385600001818152505082856020019073ffffffffffffffffffffffffffffffffffffffff16908173ffffffffffffffffffffffffffffffffffffffff16815250508185604001907bffffffffffffffffffffffffffffffffffffffffffffffffffffffff191690817bffffffffffffffffffffffffffffffffffffffffffffffffffffffff191681525050849050949350505050565b6125198260038351612751565b61252c818361289690919063ffffffff16565b505050565b6060634042994660e01b60008084600001518560200151866040015187606001516001896080015160000151604051602401808973ffffffffffffffffffffffffffffffffffffffff1673ffffffffffffffffffffffffffffffffffffffff1681526020018881526020018781526020018673ffffffffffffffffffffffffffffffffffffffff1673ffffffffffffffffffffffffffffffffffffffff168152602001857bffffffffffffffffffffffffffffffffffffffffffffffffffffffff19167bffffffffffffffffffffffffffffffffffffffffffffffffffffffff1916815260200184815260200183815260200180602001828103825283818151815260200191508051906020019080838360005b83811015612660578082015181840152602081019050612645565b50505050905090810190601f16801561268d5780820380516001836020036101000a031916815260200191505b509950505050505050505050604051602081830303815290604052907bffffffffffffffffffffffffffffffffffffffffffffffffffffffff19166020820180517bffffffffffffffffffffffffffffffffffffffffffffffffffffffff83818316178352505050509050919050565b612705612bd7565b60006020838161271157fe5b061461272a576020828161272157fe5b06602003820191505b81836020018181525050604051808452600081528281016020016040525082905092915050565b6017811161277e576127788160058460ff16901b60ff1617846128b890919063ffffffff16565b50612891565b60ff81116127c0576127a3601860058460ff16901b17846128b890919063ffffffff16565b506127ba816001856128d89092919063ffffffff16565b50612890565b61ffff8111612803576127e6601960058460ff16901b17846128b890919063ffffffff16565b506127fd816002856128d89092919063ffffffff16565b5061288f565b63ffffffff81116128485761282b601a60058460ff16901b17846128b890919063ffffffff16565b50612842816004856128d89092919063ffffffff16565b5061288e565b67ffffffffffffffff811161288d57612874601b60058460ff16901b17846128b890919063ffffffff16565b5061288b816008856128d89092919063ffffffff16565b505b5b5b5b5b505050565b61289e612bd7565b6128b0838460000151518485516128fa565b905092915050565b6128c0612bd7565b6128d083846000015151846129b3565b905092915050565b6128e0612bd7565b6128f1848560000151518585612a01565b90509392505050565b612902612bd7565b825182111561291057600080fd5b8460200151828501111561293b5761293a8560026129348860200151888701612a62565b02612a7e565b5b60008086518051876020830101935080888701111561295a5787860182525b60208701925050505b602084106129865780518252602082019150602081019050602084039350612963565b60006001856020036101000a03905080198251168184511681811785525050879350505050949350505050565b6129bb612bd7565b836020015183106129d8576129d7846002866020015102612a7e565b5b83518051602085830101848153818614156129f4576001820183525b5050508390509392505050565b612a09612bd7565b84602001518483011115612a2757612a2685600286850102612a7e565b5b60006001836101000a0390508551838682010185831982511617815281518588011115612a545784870182525b505085915050949350505050565b600081831115612a7457829050612a78565b8190505b92915050565b606082600001519050612a9183836126fd565b50612a9c8382612896565b50505050565b828054600181600116156101000203166002900490600052602060002090601f016020900481019282601f10612ae357805160ff1916838001178555612b11565b82800160010185558215612b11579182015b82811115612b10578251825591602001919060010190612af5565b5b509050612b1e9190612bf1565b5090565b50805460018160011615610100020316600290046000825580601f10612b485750612b67565b601f016020900490600052602060002090810190612b669190612bf1565b5b50565b6040518060a0016040528060008019168152602001600073ffffffffffffffffffffffffffffffffffffffff16815260200160007bffffffffffffffffffffffffffffffffffffffffffffffffffffffff1916815260200160008152602001612bd1612bd7565b81525090565b604051806040016040528060608152602001600081525090565b612c1391905b80821115612c0f576000816000905550600101612bf7565b5090565b9056fe4f776e61626c653a206e6577206f776e657220697320746865207a65726f2061646472657373756e61626c6520746f207472616e73666572416e6443616c6c20746f206f7261636c65557365726e616d65206d757374206265206174206c6561737420332063686172616374657273416e206f7261636c652061646472657373206d7573742062652070726f7669646564536f75726365206d75737420626520746865206f7261636c65206f66207468652072657175657374a26469706673582212203014931596ae2c55d3a894592617d4957f74f517461cd4021a2731a0f9928ddf64736f6c63430006060033",
  "immutableReferences": {},
  "source": "pragma solidity ^0.6.6;\n\nimport \"@chainlink/contracts/src/v0.6/ChainlinkClient.sol\";\nimport \"@openzeppelin/contracts/access/Ownable.sol\";\nimport \"@openzeppelin/contracts/token/ERC20/IERC20.sol\";\n\n/**\n * SmartTestament contract for managing crypto \"last will\"\n * Uses custom ChainLink external adapter for fetching information on testator's most recent social media activity.\n */\ncontract SmartTestament is ChainlinkClient, Ownable {\n    address private oracle;\n    bytes32 private jobId;\n    uint256 private fee;\n    uint256 private releaseFundsAfterDays;\n    mapping(string => uint256) private userLastSeenAlive;\n    mapping(bytes32 => string) private requestToUsername;\n    mapping(address => uint256) private depositBalance;\n    mapping(string => address[]) private usernameToTestatorAddresses;\n    mapping(address => address) private beneficiaries;\n    string[] private usernames;\n\n    /**\n     * @notice Deploys contract\n     */\n    constructor(address _link) public {\n        if (_link == address(0)) {\n            setPublicChainlinkToken();\n        } else {\n            setChainlinkToken(_link);\n        }\n      fee = 0.1 * 10 ** 18;\n      releaseFundsAfterDays = 180;\n    }\n\n    /**\n     * @notice Allows the owner to set up oracle address and job ID\n     */\n    function setOracleParams(address _oracle, bytes32 _jobId) public onlyOwner {\n        require(_oracle != address(0), \"An oracle address must be provided\");\n        oracle = _oracle;\n        require(_jobId[0] != 0, \"A jobId must be provided\");\n        jobId = _jobId;\n    }\n\n    /**\n     * @notice Set how many days after last activity funds should be released to beneficiary\n     */\n    function setGracePeriod(uint256 _days) public onlyOwner {\n      require(_days > 0, \"Must be more than 0 days\");\n      releaseFundsAfterDays = _days;\n    }\n\n    /**\n     * @notice Allows the owner to request checking of all users\n     */\n    function requestDaysSinceLastTweet() public onlyOwner {\n      for (uint i=0; i<usernames.length; i++) {\n        requestDaysSinceLastTweetForUsername(usernames[i]);\n      }\n    }\n\n    /**\n     * @notice Allows the owner to request days since user was seen alive\n     * @param _username Twitter screen name\n     */\n    function requestDaysSinceLastTweetForUsername(string memory _username) public onlyOwner returns (bytes32 requestId) {\n      Chainlink.Request memory req = buildChainlinkRequest(jobId, address(this), this.fulfill.selector);\n      req.add(\"username\", _username);\n      requestId = sendChainlinkRequestTo(oracle, req, fee);\n      requestToUsername[requestId] = _username;\n      return requestId;\n    }\n\n    /**\n     * @notice Allows the owner to request\n     * @param _username Twitter screen name\n     */\n    function getDaysSinceLastTweet(string memory _username) public view onlyOwner returns (uint256 daysSinceLastSeenAlive) {\n        return userLastSeenAlive[_username];\n    }\n\n    /**\n     * @notice Allows the owner to withdraw any LINK balance on the contract\n     */\n    function withdrawLink() public onlyOwner {\n        LinkTokenInterface link = LinkTokenInterface(chainlinkTokenAddress());\n        require(link.transfer(msg.sender, link.balanceOf(address(this))), \"Unable to transfer\");\n    }\n\n    /**\n     * @notice Call this method if no response is received within 5 minutes\n     * @param _requestId The ID that was generated for the request to cancel\n     * @param _payment The payment specified for the request to cancel\n     * @param _callbackFunctionId The bytes4 callback function ID specified for\n     * the request to cancel\n     * @param _expiration The expiration generated for the request to cancel\n     */\n    function cancelRequest(\n        bytes32 _requestId,\n        uint256 _payment,\n        bytes4 _callbackFunctionId,\n        uint256 _expiration\n    )\n    public\n    onlyOwner\n    {\n        cancelChainlinkRequest(_requestId, _payment, _callbackFunctionId, _expiration);\n    }\n\n    /**\n     * @notice The fulfill method from requests created by this contract\n     * @dev The recordChainlinkFulfillment protects this function from being called\n     * by anyone other than the oracle address that the request was sent to\n     * @param _requestId The ID that was generated for the request\n     * @param _data The answer provided by the oracle\n     */\n    function fulfill(bytes32 _requestId, uint256 _data) public recordChainlinkFulfillment(_requestId) {\n        string memory username = requestToUsername[_requestId];\n        bytes memory usernameBytes = bytes(username);\n        if (usernameBytes.length == 0) {\n          return;\n        }\n        userLastSeenAlive[username] = _data;\n        delete requestToUsername[_requestId];\n\n        // @todo make this configurable\n        if (_data > releaseFundsAfterDays) {\n          for (uint i=0; i < usernameToTestatorAddresses[username].length; i++) {\n            releaseTestatorsFunds(usernameToTestatorAddresses[username][i]);\n          }\n        }\n    }\n\n    /**\n     * @notice Send funds to the beneficiary\n     * @param _testator Address of testator\n     */\n    function releaseTestatorsFunds(address _testator) private {\n      uint256 balance = depositBalance[_testator];\n      address beneficiary = beneficiaries[_testator];\n      if(beneficiary != address(0) && balance > 0) {\n        IERC20(chainlinkTokenAddress()).transfer(beneficiary, balance);\n        depositBalance[_testator] = 0;\n      }\n    }\n\n\n    /**\n     * @notice Deposit funds into Smart Testament\n     * @param _amount Amount to be deposited\n     * @param _username Twitter username to check\n     * @param _beneficiary Address of the beneficiary (where to send deposited funds in case of death)\n     */\n    function deposit(uint256 _amount, string memory _username, address _beneficiary) public {\n      // Require amount greater than 0\n      require(_amount > 0, \"Amount cannot be 0\");\n      bytes memory usernameBytes = bytes(_username);\n      require(usernameBytes.length > 2, \"Username must be at least 3 characters\");\n      require(_beneficiary != address(0), \"You must provide a beneficiary\");\n\n      if (depositBalance[msg.sender] <= 0) {\n        // First time deposit\n        usernameToTestatorAddresses[_username].push(msg.sender);\n        usernames.push(_username);\n        beneficiaries[msg.sender] = _beneficiary;\n      }\n\n      depositBalance[msg.sender] = depositBalance[msg.sender] + _amount;\n      IERC20(chainlinkTokenAddress()).transferFrom(msg.sender, address(this), _amount);\n    }\n\n    /**\n     * @notice Withdraw all funds\n     */\n    function withdraw() public {\n      uint256 balance = depositBalance[msg.sender];\n      require(balance > 0, \"Deposited balance cannot be 0\");\n      IERC20(chainlinkTokenAddress()).transfer(msg.sender, balance);\n\n      // @todo remove from usernames array?\n    }\n}\n",
  "sourcePath": "/mnt/c/workspace/smart-testament/contracts/SmartTestament.sol",
  "compiler": {
    "name": "solc",
    "version": "0.6.6+commit.6c089d02.Emscripten.clang"
  },
  "schemaVersion": "3.3.4",
  "updatedAt": "2021-04-11T16:25:49.560Z",
  "networkType": "ethereum",
  "devdoc": {
    "methods": {
      "cancelRequest(bytes32,uint256,bytes4,uint256)": {
        "params": {
          "_callbackFunctionId": "The bytes4 callback function ID specified for the request to cancel",
          "_expiration": "The expiration generated for the request to cancel",
          "_payment": "The payment specified for the request to cancel",
          "_requestId": "The ID that was generated for the request to cancel"
        }
      },
      "deposit(uint256,string,address)": {
        "params": {
          "_amount": "Amount to be deposited",
          "_beneficiary": "Address of the beneficiary (where to send deposited funds in case of death)",
          "_username": "Twitter username to check"
        }
      },
      "fulfill(bytes32,uint256)": {
        "details": "The recordChainlinkFulfillment protects this function from being called by anyone other than the oracle address that the request was sent to",
        "params": {
          "_data": "The answer provided by the oracle",
          "_requestId": "The ID that was generated for the request"
        }
      },
      "getDaysSinceLastTweet(string)": {
        "params": {
          "_username": "Twitter screen name"
        }
      },
      "owner()": {
        "details": "Returns the address of the current owner."
      },
      "renounceOwnership()": {
        "details": "Leaves the contract without owner. It will not be possible to call `onlyOwner` functions anymore. Can only be called by the current owner.     * NOTE: Renouncing ownership will leave the contract without an owner, thereby removing any functionality that is only available to the owner."
      },
      "requestDaysSinceLastTweetForUsername(string)": {
        "params": {
          "_username": "Twitter screen name"
        }
      },
      "transferOwnership(address)": {
        "details": "Transfers ownership of the contract to a new account (`newOwner`). Can only be called by the current owner."
      }
    }
  },
  "userdoc": {
    "methods": {
      "cancelRequest(bytes32,uint256,bytes4,uint256)": {
        "notice": "Call this method if no response is received within 5 minutes"
      },
      "constructor": "Deploys contract",
      "deposit(uint256,string,address)": {
        "notice": "Deposit funds into Smart Testament"
      },
      "fulfill(bytes32,uint256)": {
        "notice": "The fulfill method from requests created by this contract"
      },
      "getDaysSinceLastTweet(string)": {
        "notice": "Allows the owner to request"
      },
      "requestDaysSinceLastTweet()": {
        "notice": "Allows the owner to request checking of all users"
      },
      "requestDaysSinceLastTweetForUsername(string)": {
        "notice": "Allows the owner to request days since user was seen alive"
      },
      "setGracePeriod(uint256)": {
        "notice": "Set how many days after last activity funds should be released to beneficiary"
      },
      "setOracleParams(address,bytes32)": {
        "notice": "Allows the owner to set up oracle address and job ID"
      },
      "withdraw()": {
        "notice": "Withdraw all funds"
      },
      "withdrawLink()": {
        "notice": "Allows the owner to withdraw any LINK balance on the contract"
      }
    },
    "notice": "SmartTestament contract for managing crypto \"last will\" Uses custom ChainLink external adapter for fetching information on testator's most recent social media activity."
  }
}